:100000000C942A000C94DC080C940F090C944209FF
:100010000C9447000C9447000C9447000C94470044
:100020000C9447000C9447000C9447000C942D0747
:100030000C9447000C9447000C9447000C94470024
:100040000C9447000C9447000C9447000C94470014
:100050000C94470011241FBECFE5D8E0DEBFCDBF12
:1000600011E0A0E6B0E0E4E6F7E202C005900D92F0
:10007000A638B107D9F711E0A6E8B1E001C01D929A
:10008000A13AB107E1F70E9417110C94B0130C9438
:100090000000EF92FF920F931F937B018C0120E0F1
:1000A00030E040E05FE40E94F50388238CF0C80153
:1000B000B70120E030E040E05FE40E94C1010E940F
:1000C00055049B01AC01205030404040504806C0D0
:1000D000C801B7010E9455049B01AC01B901CA01D6
:1000E0001F910F91FF90EF900895A0E0B0E0EBE733
:1000F000F0E00C947913DC012B01FA019C91923011
:1001000008F439C1EB018881823008F433C194309E
:1001100069F4843009F02FC111969C91119789815F
:10012000981709F428C1A0E7B0E025C1843009F48C
:1001300021C18230A9F4923009F01DC19A01AD01AC
:1001400088E0EA010990AE01E90109929E0181501F
:10015000C1F7E201898111969C918923818308C1AD
:10016000923009F407C112962D903C901397EB0141
:100170008A819B811496AD90BD90CD90DC901797AD
:10018000EC80FD800E811F819101281B390BB90184
:1001900037FF04C066277727621B730B6032710537
:1001A0000CF061C0121613066CF537014801062EDB
:1001B00004C096948794779467940A94D2F721E0C8
:1001C00030E040E050E004C0220F331F441F551FB1
:1001D0006A95D2F721503040404050402E213F21B7
:1001E00040235123211531054105510521F021E01E
:1001F00030E040E050E079018A01E628F72808293C
:1002000019293CC0232BD1F1260E371E350146019A
:10021000062E04C096948794779467940A94D2F734
:1002200021E030E040E050E004C0220F331F441FC3
:10023000551F6A95D2F721503040404050402A2146
:100240003B214C215D21211531054105510521F04E
:1002500021E030E040E050E059016A01A628B728CB
:10026000C828D9280BC0821593052CF01C01AA249C
:10027000BB24650103C0EE24FF24870111969C91E5
:10028000D20111968C91981709F445C0992339F041
:10029000A80197012A193B094C095D0906C0A6016E
:1002A00095012E193F09400B510B57FD08C01182D3
:1002B0003382228224833583468357831DC081E0A5
:1002C00081833382228288279927DC01821B930B4A
:1002D000A40BB50B84839583A683B7830DC0220F2F
:1002E000331F441F551F24833583468357838281E0
:1002F000938101979383828324813581468157813D
:10030000DA01C9010197A109B1098F5F9F4FAF4F72
:10031000BF4328F30BC0918333822282EA0CFB1C7B
:100320000C1D1D1DE482F5820683178383E0808304
:10033000248135814681578157FF1AC0C901AA27F8
:1003400097FDA095BA2F81709070A070B0705695EF
:10035000479537952795822B932BA42BB52B848318
:100360009583A683B7838281938101969383828349
:10037000DF0101C0D201CD01CDB7DEB7E2E10C94BF
:100380009513A0E2B0E0E7ECF1E00C9485136983EB
:100390007A838B839C832D833E834F835887E9E048
:1003A000EE2EF12CEC0EFD1ECE010196B7010E943F
:1003B00046068E010F5E1F4FCE010596B8010E94C2
:1003C00046068A8991E089278A8BC701B801AE0168
:1003D000475E5F4F0E9475000E947105A096E6E09F
:1003E0000C94A113A0E2B0E0E8EFF1E00C948513C7
:1003F00069837A838B839C832D833E834F835887C5
:10040000F9E0EF2EF12CEC0EFD1ECE010196B701A6
:100410000E9446068E010F5E1F4FCE010596B80161
:100420000E944606C701B801AE01475E5F4F0E94B9
:1004300075000E947105A096E6E00C94A113A0E25D
:10044000B0E0E5E2F2E00C94791369837A838B8360
:100450009C832D833E834F835887CE010196BE0136
:10046000675F7F4F0E944606CE010596BE016F5E14
:100470007F4F0E9446069985923088F089898230A4
:10048000C8F0943019F4823051F404C0843029F457
:10049000923081F480E790E0C6C0923049F420E0C9
:1004A0009A858A89981321E02A87CE010996BBC0D4
:1004B000823049F420E09A858A89981321E02A8BBA
:1004C000CE014196B0C02D843E844F8458886D88FB
:1004D0007E888F88988CEE24FF248701AA24BB2471
:1004E000650140E050E060E070E0E0E0F0E0C10174
:1004F00081709070892BE9F0E60CF71C081D191D1E
:100500009A01AB012A0D3B1D4C1D5D1D80E090E062
:10051000A0E0B0E0E614F7040805190520F481E036
:1005200090E0A0E0B0E0BA01A901480F591F6A1F8E
:100530007B1FAA0CBB1CCC1CDD1C97FE08C081E0F5
:1005400090E0A0E0B0E0A82AB92ACA2ADB2A3196B6
:10055000E032F10549F0660C771C881C991C569412
:10056000479437942794C3CFFA85EA892B893C892D
:100570008B859C85280F391F2E5F3F4F17C0CA01FE
:1005800081709070892B61F016950795F794E79428
:1005900080E090E0A0E0B0E8E82AF92A0A2B1B2BC3
:1005A00076956795579547952F5F3F4F77FDE7CF36
:1005B0000CC0440F551F661F771F17FD4160EE0CDE
:1005C000FF1C001F111F21503040403090E05907A0
:1005D00090E0690790E4790760F32B8F3C8FDB0193
:1005E000CA018F779070A070B07080349105A1051A
:1005F000B10561F447FD0AC0E114F10401051105DC
:1006000029F0405C5F4F6F4F7F4F40781A8EFE1786
:1006100011F081E08A8F4D8F5E8F6F8F78A383E01A
:10062000898FCE0149960E947105A096E2E10C9453
:100630009513A8E1B0E0EFE1F3E00C948113698336
:100640007A838B839C832D833E834F835887B9E0C5
:10065000EB2EF12CEC0EFD1ECE010196B7010E948F
:1006600046068E010F5E1F4FCE010596B8010E940F
:1006700046062985223008F47EC03989323010F4CC
:10068000B8017CC08A859A8989278A87243011F02D
:10069000223031F4231709F06EC060E770E06EC0BD
:1006A000343039F41D861E861F86188A1C861B86E8
:1006B00004C0323021F484E08987B7015FC02B8504
:1006C0003C858B899C89281B390B3C872B87ED84C3
:1006D000FE840F851889AD88BE88CF88D88CEA142F
:1006E000FB040C051D0540F4EE0CFF1C001F111F40
:1006F000215030403C872B8720E030E040E050E044
:1007000080E090E0A0E0B0E460E070E0EA14FB0478
:100710000C051D0540F0282B392B4A2B5B2BEA18C2
:10072000FB080C091D09B695A79597958795EE0CC2
:10073000FF1C001F111F6F5F7F4F6F31710531F775
:10074000DA01C9018F779070A070B0708034910584
:10075000A105B10561F427FD0AC0E114F10401050A
:10076000110529F0205C3F4F4F4F5F4F20782D87B8
:100770003E874F87588BBE01675F7F4FCB010E943A
:1007800071056896EAE00C949D13A8E1B0E0EBECEB
:10079000F3E00C94851369837A838B839C832D8388
:1007A0003E834F83588789E0E82EF12CEC0EFD1E26
:1007B000CE010196B7010E9446068E010F5E1F4FC3
:1007C000CE010596B8010E9446068985823040F028
:1007D0008989823028F0C701B8010E94BE0601C095
:1007E0008FEF6896E6E00C94A113A8E1B0E0EBEF80
:1007F000F3E00C94851369837A838B839C832D8328
:100800003E834F83588789E0E82EF12CEC0EFD1EC5
:10081000CE010196B7010E9446068E010F5E1F4F62
:10082000CE010596B8010E9446068985823040F0C7
:100830008989823028F0C701B8010E94BE0601C034
:100840008FEF6896E6E00C94A113A8E1B0E0EBE22C
:10085000F4E00C94851369837A838B839C832D83C6
:100860003E834F83588789E0E82EF12CEC0EFD1E65
:10087000CE010196B7010E9446068E010F5E1F4F02
:10088000CE010596B8010E9446068985823040F067
:100890008989823028F0C701B8010E94BE0601C0D4
:1008A00081E06896E6E00C94A113ACE0B0E0EBE5E3
:1008B000F4E00C94891369837A838B839C83CE0143
:1008C0000196BE016B5F7F4F0E9446068D8182308C
:1008D00061F1823050F1843021F48E81882351F10E
:1008E0002EC02F81388537FD20C06E812F31310514
:1008F0001CF06623F9F023C08EE190E0821B930B7D
:1009000029853A854B855C8504C056954795379572
:1009100027958A95D2F76623B1F05095409530958A
:1009200021953F4F4F4F5F4F0EC020E030E040E039
:1009300050E009C02FEF3FEF4FEF5FE704C020E02A
:1009400030E040E050E8B901CA012C96E2E00C9496
:10095000A513A8E0B0E0EFEAF4E00C9481137B016A
:100960008C01611571058105910519F482E0898377
:1009700060C083E089838EE1C82ED12CDC82CB82DB
:10098000ED82FE820F831887C801B7010E942205FD
:10099000FC013197F7FF3BC0222733272E1B3F0B6B
:1009A00057016801022E04C0D694C794B794A79447
:1009B0000A94D2F740E050E060E070E081E090E01F
:1009C000A0E0B0E004C0880F991FAA1FBB1F2A95A2
:1009D000D2F70197A109B1098E219F21A023B1234C
:1009E0000097A105B10521F041E050E060E070E022
:1009F0004A295B296C297D294D835E836F83788723
:100A00008EE190E08E1B9F0B9C838B8312C03097EE
:100A100081F00E2E04C0EE0CFF1C001F111F0A9463
:100A2000D2F7ED82FE820F831887CE1ADF0ADC82AE
:100A3000CB821A82CE0101960E9471052896EAE0C7
:100A40000C949D13EF92FF920F931F937B018C01E7
:100A500080E0E81680E0F80681E0080780E01807EB
:100A600088F48FEFE816F1040105110531F028F044
:100A700088E090E0A0E0B0E017C080E090E0A0E067
:100A8000B0E012C080E0E81680E0F80680E00807D9
:100A900081E0180728F088E190E0A0E0B0E004C011
:100AA00080E190E0A0E0B0E020E230E040E050E003
:100AB000281B390B4A0B5B0B04C016950795F7945E
:100AC000E7948A95D2F7F701E858FF4F8081281BF9
:100AD000310941095109C9011F910F91FF90EF9010
:100AE0000895DF92EF92FF920F931F93FC01E48031
:100AF000F58006811781D1808081823048F480E0C2
:100B000090E0A0E1B0E0E82AF92A0A2B1B2BA5C04F
:100B1000843009F49FC0823021F4EE24FF24870141
:100B200005C0E114F1040105110519F4E0E0F0E05D
:100B300096C0628173819FEF623879070CF05BC0C9
:100B400022E83FEF261B370B2A3131052CF020E03D
:100B500030E040E050E02AC0B801A701022E04C0F6
:100B600076956795579547950A94D2F781E090E07E
:100B7000A0E0B0E004C0880F991FAA1FBB1F2A95F0
:100B8000D2F70197A109B1098E219F21A023B1239A
:100B90000097A105B10521F081E090E0A0E0B0E070
:100BA0009A01AB01282B392B4A2B5B2BDA01C901A7
:100BB0008F779070A070B07080349105A105B10559
:100BC00039F427FF09C0205C3F4F4F4F5F4F04C0EF
:100BD000215C3F4F4F4F5F4FE0E0F0E02030A0E05E
:100BE0003A07A0E04A07A0E45A0710F0E1E0F0E07D
:100BF00079018A0127C06038710564F5FB01E1586D
:100C0000FF4FD801C7018F779070A070B07080340B
:100C10009105A105B10539F4E7FE0DC080E490E02F
:100C2000A0E0B0E004C08FE390E0A0E0B0E0E80E08
:100C3000F91E0A1F1B1F17FF05C016950795F7948D
:100C4000E794319687E016950795F794E7948A958F
:100C5000D1F705C0EE24FF248701EFEFF0E06E2FFF
:100C6000679566276795902F9F77D794DD24D79453
:100C70008E2F8695492F462B582F5D29B701CA0123
:100C80001F910F91FF90EF90DF900895FC01DB0121
:100C9000408151812281622F6F7770E0221F2227CD
:100CA000221F9381892F880F822B282F30E0991FD4
:100CB0009927991F11969C93119721153105A9F534
:100CC000411551056105710511F482E037C082E8D4
:100CD0009FEF13969C938E9312979A01AB0167E056
:100CE000220F331F441F551F6A95D1F783E08C9361
:100CF0000DC0220F331F441F551F12968D919C91DA
:100D00001397019713969C938E931297203080E04F
:100D1000380780E0480780E4580758F314962D936D
:100D20003D934D935C93179708952F3F310579F4C8
:100D3000411551056105710519F484E08C930895FE
:100D400064FF03C081E08C9312C01C9210C02F5727
:100D5000304013963C932E93129783E08C9387E058
:100D6000440F551F661F771F8A95D1F7706414963C
:100D70004D935D936D937C93179708951F93DC01BA
:100D8000FB019C91923008F447C08081823008F4C6
:100D900043C0943051F411961C91843099F58181AF
:100DA000682F70E0611B71093FC0843021F09230E0
:100DB00031F48230B9F18181882389F12DC01196F7
:100DC0001C9111978230F1F081811817D9F4129695
:100DD0002D913C911397828193818217930794F010
:100DE00028173907BCF014968D919D910D90BC91F8
:100DF000A02D2481358146815781281739074A075C
:100E00005B0718F4112341F00AC082179307A40767
:100E1000B50740F4112319F061E070E005C06FEFF1
:100E20007FEF02C060E070E0CB011F910895DF9377
:100E3000CF9300D0CDB7DEB79A83898389819A8119
:100E4000009731F089819A81909387018093860180
:100E50000F900F90CF91DF9108951F920F920FB6D0
:100E60000F9211242F933F934F935F936F937F9330
:100E70008F939F93AF93BF93EF93FF93DF93CF93A2
:100E8000CDB7DEB7E0918601F09187010995CF914A
:100E9000DF91FF91EF91BF91AF919F918F917F91E2
:100EA0006F915F914F913F912F910F900FBE0F90D7
:100EB0001F901895DF93CF93CDB7DEB7E3E5F0E051
:100EC00080818F7B8083E3E5F0E08081877F808372
:100ED000E2E5F0E01082E9E5F0E080818160808366
:100EE000CF91DF910895DF93CF93CDB7DEB7E3E5E0
:100EF000F0E08081887F8083CF91DF910895DF9338
:100F0000CF93CDB7DEB7E3E5F0E08081887F8360E3
:100F10008083CF91DF910895DF93CF930F92CDB768
:100F2000DEB78983E2E5F0E0898180830F90CF917D
:100F3000DF910895DF93CF93CDB7DEB7E2E5F0E020
:100F40008081CF91DF910895DF93CF930F92CDB73A
:100F5000DEB789830F90CF91DF910895DF93CF9310
:100F6000CDB7DEB7E1E4F0E0808188608083CF9187
:100F7000DF910895DF93CF93CDB7DEB7E1E4F0E0E2
:100F800088E18083E1E4F0E08081877F8083CF91F6
:100F9000DF910895DF93CF930F92CDB7DEB78983AA
:100FA000E1E4F0E089818770982F97708081887FD5
:100FB000892B80830F90CF91DF910895DF93CF939A
:100FC000CDB7DEB7AFE5B0E0EFE5F0E08081806857
:100FD0008C93CF91DF910895DF93CF93CDB7DEB798
:100FE000AFE5B0E0EFE5F0E080818F778C93CF91B3
:100FF000DF910895DF93CF9300D000D0CDB7DEB757
:1010000089836A838981282F30E03C832B838B81FD
:101010009C8181309105D9F12B813C8122303105B1
:1010200009F465C08B819C81009709F081C083E041
:1010300062E040E00E94F7098A81882379F4A5E5FF
:10104000B0E0E5E5F0E080818E7F8C93A5E5B0E02F
:10105000E5E5F0E0808182608C9311C08A81813067
:1010600071F4A5E5B0E0E5E5F0E0808181608C9366
:10107000A5E5B0E0E5E5F0E0808182608C93ABE52A
:10108000B0E0EBE5F0E0808180648C9351C083E0B8
:1010900063E040E00E94F7098A81882379F4A5E59E
:1010A000B0E0E5E5F0E080818B7F8C93A5E5B0E0D2
:1010B000E5E5F0E0808188608C9311C08A81813001
:1010C00071F4A5E5B0E0E5E5F0E0808184608C9303
:1010D000A5E5B0E0E5E5F0E0808188608C93ABE5C4
:1010E000B0E0EBE5F0E0808180688C9321C081E086
:1010F00062E040E00E94F7098A81882341F4A4E578
:10110000B0E0E4E5F0E080818F7B8C930AC08A81B7
:10111000813039F4A4E5B0E0E4E5F0E0808180645A
:101120008C93ABE5B0E0EBE5F0E0808180628C93DE
:101130000F900F900F900F90CF91DF910895DF9354
:10114000CF9300D000D00F92CDB7DEB79A838983BA
:101150006B8389819A81009739F18B81282F30E048
:101160003D832C838C819D818130910581F02C8180
:101170003D812230310591F08C819D810097A1F451
:1011800089819A8190938901809388010DC089811A
:101190009A8190938B0180938A0106C089819A81FC
:1011A00090938D0180938C010F900F900F900F9072
:1011B0000F90CF91DF9108951F920F920FB60F926B
:1011C00011242F933F934F935F936F937F938F934C
:1011D0009F93AF93BF93EF93FF93DF93CF93CDB7DD
:1011E000DEB78091880190918901009729F0E09104
:1011F0008801F09189010995CF91DF91FF91EF91DD
:10120000BF91AF919F918F917F916F915F914F911E
:101210003F912F910F900FBE0F901F9018951F9226
:101220000F920FB60F9211242F933F934F935F931A
:101230006F937F938F939F93AF93BF93EF93FF939E
:10124000DF93CF93CDB7DEB780918A0190918B0168
:10125000009729F0E0918A01F0918B010995CF91D7
:10126000DF91FF91EF91BF91AF919F918F917F910E
:101270006F915F914F913F912F910F900FBE0F9003
:101280001F9018951F920F920FB60F9211242F9353
:101290003F934F935F936F937F938F939F93AF93FE
:1012A000BF93EF93FF93DF93CF93CDB7DEB78091DA
:1012B0008C0190918D01009729F0E0918C01F091C3
:1012C0008D010995CF91DF91FF91EF91BF91AF9182
:1012D0009F918F917F916F915F914F913F912F914E
:1012E0000F900FBE0F901F901895DF93CF9300D0F3
:1012F00000D0CDB7DEB789836A838981282F30E09B
:101300003C832B838B819C8181309105D1F02B8193
:101310003C81223031052CF48B819C81009761F057
:101320001EC02B813C812230310581F08B819C8154
:101330008330910581F013C0EAE3F0E08A81808375
:101340000EC0E7E3F0E08A81808309C0E4E3F0E0C7
:101350008A81808304C0E1E3F0E08A8180830F907A
:101360000F900F900F90CF91DF910895DF93CF935F
:1013700000D000D0CDB7DEB789836A838981282F5A
:1013800030E03C832B838B819C8181309105D1F0AF
:101390002B813C81223031052CF48B819C8100977C
:1013A00061F01EC02B813C812230310581F08B81A0
:1013B0009C818330910581F013C0EBE3F0E08A81DA
:1013C00080830EC0E8E3F0E08A81808309C0E5E312
:1013D000F0E08A81808304C0E2E3F0E08A818083C8
:1013E0000F900F900F900F90CF91DF910895DF93A2
:1013F000CF93CDB7DEB727970FB6F894DEBF0FBEF9
:10140000CDBF89836A834B838A81883008F0EAC024
:101410008B81813009F06FC08981282F30E03F83B4
:101420002E838E819F818130910549F12E813F81EC
:10143000223031052CF48E819F81009761F0D2C05B
:101440002E813F812230310571F18E819F81833061
:101450009105E9F1C7C0AAE3B0E0EAE3F0E08081DA
:10146000482F8A81282F30E081E090E0022E02C0D0
:10147000880F991F0A94E2F7842B8C93B3C0A7E3DB
:10148000B0E0E7E3F0E08081482F8A81282F30E048
:1014900081E090E0022E02C0880F991F0A94E2F7C3
:1014A000842B8C939FC0A4E3B0E0E4E3F0E0808160
:1014B000482F8A81282F30E081E090E0022E02C080
:1014C000880F991F0A94E2F7842B8C938BC0A1E3B9
:1014D000B0E0E1E3F0E08081482F8A81282F30E0FE
:1014E00081E090E0022E02C0880F991F0A94E2F773
:1014F000842B8C9377C08B81882309F073C08981FA
:10150000282F30E03D832C838C819D818130910593
:1015100059F12C813D81223031052CF48C819D8143
:10152000009769F05FC02C813D812230310589F13F
:101530008C819D818330910509F440C053C0AAE39A
:10154000B0E0EAE3F0E08081482F8A81282F30E084
:1015500081E090E0022E02C0880F991F0A94E2F702
:10156000809584238C933EC0A7E3B0E0E7E3F0E0EE
:101570008081482F8A81282F30E081E090E0022E80
:1015800002C0880F991F0A94E2F7809584238C93F8
:1015900029C0A4E3B0E0E4E3F0E08081482F8A8131
:1015A000282F30E081E090E0022E02C0880F991FC2
:1015B0000A94E2F7809584238C9314C0A1E3B0E0F1
:1015C000E1E3F0E08081482F8A81282F30E081E03C
:1015D00090E0022E02C0880F991F0A94E2F78095CE
:1015E00084238C9327960FB6F894DEBF0FBECDBF31
:1015F000CF91DF910895DF93CF93CDB7DEB72797D3
:101600000FB6F894DEBF0FBECDBF89836A834B83CC
:101610008A81883008F0EAC08B81813009F06FC080
:101620008981282F30E03F832E838E819F818130F6
:10163000910549F12E813F81223031052CF48E81B4
:101640009F81009761F0D2C02E813F812230310509
:1016500071F18E819F8183309105E9F1C7C0ABE3C1
:10166000B0E0EBE3F0E08081482F8A81282F30E062
:1016700081E090E0022E02C0880F991F0A94E2F7E1
:10168000842B8C93B3C0A8E3B0E0E8E3F0E0808162
:10169000482F8A81282F30E081E090E0022E02C09E
:1016A000880F991F0A94E2F7842B8C939FC0A5E3BF
:1016B000B0E0E5E3F0E08081482F8A81282F30E018
:1016C00081E090E0022E02C0880F991F0A94E2F791
:1016D000842B8C938BC0A2E3B0E0E2E3F0E0808146
:1016E000482F8A81282F30E081E090E0022E02C04E
:1016F000880F991F0A94E2F7842B8C9377C08B8113
:10170000882309F073C08981282F30E03D832C8322
:101710008C819D818130910559F12C813D81223050
:1017200031052CF48C819D81009769F05FC02C817C
:101730003D812230310589F18C819D818330910575
:1017400009F440C053C0ABE3B0E0EBE3F0E08081CC
:10175000482F8A81282F30E081E090E0022E02C0DD
:10176000880F991F0A94E2F7809584238C933EC0DA
:10177000A8E3B0E0E8E3F0E08081482F8A81282FD9
:1017800030E081E090E0022E02C0880F991F0A9499
:10179000E2F7809584238C9329C0A5E3B0E0E5E3CC
:1017A000F0E08081482F8A81282F30E081E090E0AE
:1017B000022E02C0880F991F0A94E2F780958423B5
:1017C0008C9314C0A2E3B0E0E2E3F0E08081482F04
:1017D0008A81282F30E081E090E0022E02C0880F3D
:1017E000991F0A94E2F7809584238C9327960FB66D
:1017F000F894DEBF0FBECDBFCF91DF910895DF9388
:10180000CF9300D000D00F92CDB7DEB78A836B8321
:101810008B81883008F067C08A81282F30E03D83B3
:101820002C834C815D814130510541F18C819D813A
:101830008230910534F42C813D812115310561F010
:1018400052C04C815D814230510551F18C819D81A6
:1018500083309105B9F147C0E9E3F0E08081282F9A
:1018600030E08B81882F90E0A90102C05595479503
:101870008A95E2F7CA018170898335C0E6E3F0E01A
:101880008081282F30E08B81882F90E0A90102C051
:10189000559547958A95E2F7CA018170898323C0DF
:1018A000E3E3F0E08081282F30E08B81882F90E007
:1018B000A90102C0559547958A95E2F7CA01817042
:1018C000898311C0E0E3F0E08081282F30E08B8134
:1018D000882F90E0A90102C0559547958A95E2F7B7
:1018E000CA018170898389810F900F900F900F90AA
:1018F0000F90CF91DF910895DF93CF9300D000D068
:10190000CDB7DEB789836A838A81883008F06EC0DC
:101910008981282F30E03C832B838B819C8181300F
:10192000910549F12B813C81223031052CF48B81CA
:101930009C81009761F05AC02B813C812230310597
:1019400071F18B819C8183309105E9F14FC0ABE34C
:10195000B0E0EBE3F0E08081482F8A81282F30E06F
:1019600081E090E0022E02C0880F991F0A94E2F7EE
:1019700084278C933BC0A8E3B0E0E8E3F0E08081EB
:10198000482F8A81282F30E081E090E0022E02C0AB
:10199000880F991F0A94E2F784278C9327C0A5E348
:1019A000B0E0E5E3F0E08081482F8A81282F30E025
:1019B00081E090E0022E02C0880F991F0A94E2F79E
:1019C00084278C9313C0A2E3B0E0E2E3F0E08081CF
:1019D000482F8A81282F30E081E090E0022E02C05B
:1019E000880F991F0A94E2F784278C930F900F9029
:1019F0000F900F90CF91DF910895DF93CF93CDB7E4
:101A0000DEB72E970FB6F894DEBF0FBECDBF80E0D5
:101A100090E0A0EFB1E48B879C87AD87BE876B8594
:101A20007C858D859E8520E030E04AE755E40E9464
:101A30001F02DC01CB018F839887A987BA876F814A
:101A4000788589859A8520E030E040E85FE30E9450
:101A5000250488232CF481E090E09E838D833FC091
:101A60006F81788589859A8520E03FEF4FE757E4BD
:101A70000E94C50318164CF56B857C858D859E8567
:101A800020E030E040E251E40E941F02DC01CB0183
:101A9000BC01CD010E944900DC01CB019E838D83F6
:101AA0000FC080E991E09C838B838B819C8101979F
:101AB000F1F79C838B838D819E8101979E838D831B
:101AC0008D819E81009769F714C06F817885898523
:101AD0009A850E944900DC01CB019E838D838D8114
:101AE0009E819A83898389819A810197F1F79A83EC
:101AF000898382E060E041E00E94F70982E061E0D2
:101B000041E00E94F70982E062E041E00E94F709AB
:101B100082E063E041E00E94F70982E064E041E096
:101B20000E94F70982E065E041E00E94F70982E047
:101B30000E941E0F88E20E941E0F8CE00E941E0F62
:101B400081E00E941E0F86E00E941E0F2E960FB6A7
:101B5000F894DEBF0FBECDBFCF91DF910895DF9324
:101B6000CF93CDB7DEB76D970FB6F894DEBF0FBE3B
:101B7000CDBF8D8F8D8D982F991F9927991F82E04A
:101B800065E0492F0E94FB0A8D8D8295869586958A
:101B90008370982F917082E064E0492F0E94FB0AC5
:101BA0008D8D829586958770982F917082E063E085
:101BB000492F0E94FB0A8D8D82958F70982F91700E
:101BC00082E062E0492F0E94FB0A82E061E041E08E
:101BD0000E94FB0A80E090E0A0E0B0E4898F9A8F39
:101BE000AB8FBC8F698D7A8D8B8D9C8D20E030E022
:101BF0004AE755E40E941F02DC01CB018D8B9E8BCE
:101C0000AF8BB88F6D897E898F89988D20E030E009
:101C100040E85FE30E94250488232CF481E090E0F3
:101C20009C8B8B8B3FC06D897E898F89988D20E03E
:101C30003FEF4FE757E40E94C50318164CF5698D36
:101C40007A8D8B8D9C8D20E030E040E251E40E9443
:101C50001F02DC01CB01BC01CD010E944900DC0167
:101C6000CB019C8B8B8B0FC080E991E09A8B898B89
:101C700089899A890197F1F79A8B898B8B899C893D
:101C800001979C8B8B8B8B899C89009769F714C07B
:101C90006D897E898F89988D0E944900DC01CB0176
:101CA0009C8B8B8B8B899C89988B8F878F85988950
:101CB0000197F1F7988B8F8782E061E040E00E9406
:101CC000FB0A8D8D869586958695982F917082E07A
:101CD00065E0492F0E94FB0A8D8D86958695982F89
:101CE000917082E064E0492F0E94FB0A8D8D8695F9
:101CF000982F917082E063E0492F0E94FB0A8D8D3E
:101D0000982F917082E062E0492F0E94FB0A82E0E6
:101D100061E041E00E94FB0A80E090E0A0E0B0E4D6
:101D20008B879C87AD87BE876B857C858D859E85DF
:101D300020E030E04AE755E40E941F02DC01CB01BD
:101D40008F839887A987BA876F81788589859A85D7
:101D500020E030E040E85FE30E94250488232CF473
:101D600081E090E09E838D833FC06F817885898577
:101D70009A8520E03FEF4FE757E40E94C50318160D
:101D80004CF56B857C858D859E8520E030E040E2BA
:101D900051E40E941F02DC01CB01BC01CD010E9475
:101DA0004900DC01CB019E838D830FC080E991E067
:101DB0009C838B838B819C810197F1F79C838B8320
:101DC0008D819E8101979E838D838D819E81009759
:101DD00069F714C06F81788589859A850E944900CA
:101DE000DC01CB019E838D838D819E819A838983C3
:101DF00089819A810197F1F79A83898382E061E072
:101E000040E00E94FB0A6D960FB6F894DEBF0FBE4D
:101E1000CDBFCF91DF910895DF93CF930F92CDB7D0
:101E2000DEB7898382E060E041E00E94FB0A89819D
:101E30000E94AF0D0F90CF91DF910895DF93CF9364
:101E40000F92CDB7DEB7898382E060E040E00E9468
:101E5000FB0A89810E94AF0D0F90CF91DF91089509
:101E6000DF93CF9300D000D0CDB7DEB79C838B83B8
:101E70001A8219820FC02B813C8189819A81F901D4
:101E8000E80FF91F80810E940C0F89819A810196C9
:101E90009A8389832B813C8189819A81F901E80F9A
:101EA000F91F8081882339F70F900F900F900F90C2
:101EB000CF91DF910895DF93CF93CDB7DEB727970A
:101EC0000FB6F894DEBF0FBECDBF8E836F831A822C
:101ED00080E48B8384E18C8384E58D838E81282F3D
:101EE00030E0CE010296FC01E20FF31F90818F815A
:101EF000890F8058898389810E941E0F27960FB60B
:101F0000F894DEBF0FBECDBFCF91DF910895DF9370
:101F1000CF93CDB7DEB781E00E941E0FCF91DF9146
:101F20000895DF93CF930F92CDB7DEB78983898170
:101F30008C3121F48CE10E941E0F06C0898188310A
:101F400019F488E10E941E0F0F90CF91DF91089540
:101F50000F931F93DF93CF93CDB7DEB763970FB681
:101F6000F894DEBF0FBECDBF688B798B8A8B9B8BBD
:101F700088899989AA89BB898A839B83AC83BD831D
:101F800019828981082F10E08A819B81AC81BD81F3
:101F90002AE030E040E050E0BC01CD010E94571340
:101FA000DC01CB01282F205DCE010696FC01E00F5D
:101FB000F11F20838A819B81AC81BD812AE030E0C2
:101FC00040E050E0BC01CD010E945713DA01C90185
:101FD0008A839B83AC83BD8389818F5F89838A8158
:101FE0009B81AC81BD810097A105B10551F611C05F
:101FF0008981882F90E09C0121503040CE010696C7
:10200000FC01E20FF31F80810E940C0F8981815037
:1020100089838981882361F763960FB6F894DEBFC0
:102020000FBECDBFCF91DF911F910F910895DF9328
:10203000CF9300D000D00F92CDB7DEB79C838B83B7
:102040006D8319828D81882F90E00896880F991FE3
:10205000880F991F880F991F8A838A810E941E0FFB
:1020600019820EC08981282F30E08B819C81FC0170
:10207000E20FF31F80810E940C0F89818F5F89839B
:102080008981883078F380E060E00E945B0F0F90D8
:102090000F900F900F900F90CF91DF910895DF93E5
:1020A000CF930F92CDB7DEB7898389810E940C0F41
:1020B0000F90CF91DF910895DF93CF93CDB7DEB727
:1020C00080919C0190919D01A0919E01B0919F01F2
:1020D0000196A11DB11D80939C0190939D01A09339
:1020E0009E01B0939F01CF91DF910895DF93CF932D
:1020F000CDB7DEB780917C01813009F05DC01092D0
:102100008F0181E080938E010E949A078093A00145
:102110008091A001282F30E040E050E080919C01A8
:1021200090919D01A0919E01B0919F01BA2FA92F7E
:10213000982F8827820F931FA41FB51FBC01CD01C4
:102140000E94A904DC01CB01809394019093950136
:10215000A0939601B0939701809190019091910185
:10216000A0919201B0919301209194013091950139
:102170004091960150919701BC01CD010E94190335
:10218000DC01CB018093980190939901A0939A016F
:10219000B0939B0180E00E948C0710929C011092EA
:1021A0009D0110929E0110929F0180E060E00E94CC
:1021B000FA0710927C0138C080917C018823A1F538
:1021C00010928E0181E080938F010E949A07809384
:1021D000A0018091A001282F30E040E050E08091E4
:1021E0009C0190919D01A0919E01B0919F01BA2FF9
:1021F000A92F982F8827820F931FA41FB51FBC01FA
:10220000CD010E94A904DC01CB0180939001909341
:102210009101A0939201B093930180E061E00E944C
:10222000FA0781E080937C01CF91DF910895DF93DD
:10223000CF93CDB7DEB7C054D0400FB6F894DEBF11
:102240000FBECDBF0E94FD0C1BA688E0FE01BC9610
:10225000DF01982F1D929A95E9F78FEF8CA7DE0189
:10226000D496BDAFACAFEDE7F1E0FFAFEEAFF8E075
:102270002196FFAF2197AEADBFAD0C90EEADFFAD97
:102280003196FFAFEEAFACADBDAD0C92ECADFDAD98
:102290003196FDAFECAF2196FFAD2197F15021961D
:1022A000FFAF219721968FAD2197882321F783E0F7
:1022B00062E040E00E94F70983E062E041E00E94B2
:1022C000FB0A80E061E00E94FA0786E790E160E0A7
:1022D0000E949F080E945A078CE590E10E94170710
:1022E0000E947F070E94DE07CE018C9661E00E946B
:1022F0001710CE01C49662E00E94171080E060E0E3
:102300000E945B0F80E690E00E94300F20919801C0
:102310003091990140919A0150919B0160E070E0E9
:1023200080E89FE30E941903DC01CB01BC01CD01D1
:1023300020E030E04AE754E40E941F02DC01CB01B8
:10234000BC01CD010E944900DC01CB01882F90E047
:10235000A0E0B0E0BC01CD010E94A80F84E690E0AF
:102360000E94300F80E06CE00E945B0F89E690E0F5
:102370000E94300F8091980190919901A0919A014B
:10238000B0919B01BC01CD0120E030E048EC52E46B
:102390000E941F02DC01CB01BC01CD010E9449005B
:1023A000DC01CB01882F90E0A0E0B0E0BC01CD01C2
:1023B0000E94A80F8DE690E00E94300F82E06BA58E
:1023C0000E945B0F78C081E00E944F1080E090E097
:1023D000A8E4B2E48FA398A7A9A7BAA76FA178A58C
:1023E00089A59AA520E030E04AE755E40E941F0243
:1023F000DC01CB018BA39CA3ADA3BEA36BA17CA1ED
:102400008DA19EA120E030E040E85FE30E9425041A
:1024100088232CF481E090E09AA389A33FC06BA1AC
:102420007CA18DA19EA120E03FEF4FE757E40E94E1
:10243000C50318164CF56FA178A589A59AA520E0CB
:1024400030E040E251E40E941F02DC01CB01BC01FC
:10245000CD010E944900DC01CB019AA389A30FC0E2
:1024600080E991E098A38F8F8F8D98A10197F1F764
:1024700098A38F8F89A19AA101979AA389A389A173
:102480009AA1009769F714C06BA17CA18DA19EA1B0
:102490000E944900DC01CB019AA389A389A19AA1DA
:1024A0009E8F8D8F8D8D9E8D0197F1F79E8F8D8FD5
:1024B0008BA58F5F8BA780918E01813009F483CF2C
:1024C00078C082E00E944F1080E090E0A8E4B2E47F
:1024D000898F9A8FAB8FBC8F698D7A8D8B8D9C8DF8
:1024E00020E030E04AE755E40E941F02DC01CB0106
:1024F0008D8B9E8BAF8BB88F6D897E898F89988DE0
:1025000020E030E040E85FE30E94250488232CF4BB
:1025100081E090E09C8B8B8B3FC06D897E898F8999
:10252000988D20E03FEF4FE757E40E94C50318164F
:102530004CF5698D7A8D8B8D9C8D20E030E040E2EA
:1025400051E40E941F02DC01CB01BC01CD010E94BD
:102550004900DC01CB019C8B8B8B0FC080E991E0A3
:102560009A8B898B89899A890197F1F79A8B898B44
:102570008B899C8901979C8B8B8B8B899C8900977D
:1025800069F714C06D897E898F89988D0E944900F2
:10259000DC01CB019C8B8B8B8B899C89988B8F87E3
:1025A0008F8598890197F1F7988B8F878BA58F5F1F
:1025B0008BA780918F01813009F483CF8BA5823165
:1025C00018F00E94870F1BA680E090E0A8E4B2E418
:1025D0008B879C87AD87BE876B857C858D859E8527
:1025E00020E030E04AE755E40E941F02DC01CB0105
:1025F0008F839887A987BA876F81788589859A851F
:1026000020E030E040E85FE30E94250488232CF4BA
:1026100081E090E09E838D833FC06F8178858985BE
:102620009A8520E03FEF4FE757E40E94C503181654
:102630004CF56B857C858D859E8520E030E040E201
:1026400051E40E941F02DC01CB01BC01CD010E94BC
:102650004900DC01CB019E838D830FC080E991E0AE
:102660009C838B838B819C810197F1F79C838B8367
:102670008D819E8101979E838D838D819E810097A0
:1026800069F73CCE6F81788589859A850E944900DB
:10269000DC01CB019E838D838D819E819A8389830A
:1026A00089819A810197F1F79A83898327CEA1E2E4
:1026B0001A2EAA1BBB1BFD010DC0AA1FBB1FEE1FBC
:1026C000FF1FA217B307E407F50720F0A21BB30B07
:1026D000E40BF50B661F771F881F991F1A9469F783
:1026E00060957095809590959B01AC01BD01CF01DF
:1026F00008952F923F924F925F926F927F928F92A6
:102700009F92AF92BF92CF92DF92EF92FF920F9380
:102710001F93CF93DF93CDB7DEB7CA1BDB0B0FB68A
:10272000F894DEBF0FBECDBF09942A883988488847
:102730005F846E847D848C849B84AA84B984C884DD
:10274000DF80EE80FD800C811B81AA81B981CE0FD4
:10275000D11D0FB6F894DEBF0FBECDBFED010895B9
:04276000F894FFCF1B
:10276400463A2000204B487A00443A2000202500B5
:102774000000000000000000000102020303030344
:1027840004040404040404040505050505050505FD
:1027940005050505050505050606060606060606DD
:1027A40006060606060606060606060606060606C5
:1027B40006060606060606060707070707070707AD
:1027C4000707070707070707070707070707070795
:1027D4000707070707070707070707070707070785
:1027E4000707070707070707070707070707070775
:1027F400070707070707070708080808080808085D
:102804000808080808080808080808080808080844
:102814000808080808080808080808080808080834
:102824000808080808080808080808080808080824
:102834000808080808080808080808080808080814
:102844000808080808080808080808080808080804
:1028540008080808080808080808080808080808F4
:1028640008080808080808080808080808080808E4
:1028740008080808080808086F12833B01000000D4
:06288400000000FFFF0050
:00000001FF
